:0C0000000C945A000C9410010C9429017F
:10000C000C9434010C9400000C9400000C9400002F
:10001C000C94CE000C9400000C9400000C94000086
:10002C000C9400000C9400000C9400000C94000044
:10003C000C9400000C9400000C9400000C94000034
:10004C000C9400000C9400001027E80364000A00D4
:10005C000100001000011000010001000000000070
:10006C00000000007DBDDDED7BBBDBEB77B7D7E798
:10007C00256425643A256425643A256425640000CA
:10008C0080C001002D4E414E00494E460000090033
:10009C00050066000C0070027000020080028C00EB
:1000AC00010087028E000000F894EE27ECBBF1E013
:1000BC00FBBFEBBFE5BF8DE0A2E0BB27ED938A95BC
:1000CC00E9F780E098E0A0E6ED930197E9F7EAE91B
:1000DC00F0E085919591009761F0A591B59105900F
:1000EC001590BF01F00105900D920197E1F7FB010E
:1000FC00F0CFEFE5EDBFE8E0EEBFC0E6D2E00C9448
:10010C0087002597E9ECEA93A2E0FDD0A9EC07D192
:10011C001E2FC79AA0E10E940F023CD1E12FF0E004
:10012C00FA93EA93DE0112960E943D02DE010E94D0
:10013C00FE01E0EFE4BBEEE0E5BBBA98C29AE0E268
:10014C00EBBFE4B7EF7BE4BF0E942C04EDE3EBBD07
:10015C00E9E0EABD7894E9B7E461E9BFEBE0EEBD14
:10016C00B99AB89A8B988A98939A929AE5B7E5BF00
:10017C00E5B7E260E5BFEBB7E064EBBFE5B7E5BF21
:10018C00E5B7E860E5BFEBB7E068EBBF2596FFCFBE
:10019C000A921A92FA926A937A938A939A93AA93EE
:1001AC00BA93EA93FA93EFB7EA930C2C0D2811F556
:1001BC00C098C198F30131963F01ECE3F0E0E615ED
:1001CC00F70531F466247724F40131964F01C09A77
:1001DC00ECE3F0E0E815F90531F488249924F501F5
:1001EC0031965F01C19AE8E1F0E0EA15FB0511F4E4
:1001FC00AA24BB240E942C04E991EFBFF991E99148
:10020C00B991A9919991899179916991F9901990E4
:10021C00099018950A92EA93FA93EFB7EA93E1E002
:10022C00F0E0EC15FD0519F4CC24DD2406C00C2CF3
:10023C000D2819F4E1E0F0E06F01E991EFBFF991BD
:10024C00E99109901895EA93EFB7662477248824EE
:10025C009924AA24BB24EFBFE99118958A93AA93F9
:10026C00BA93EA93FA93EFB7EA9325970E9408059D
:10027C00E1E0F0E0E0937C02F0937D02E4B3E06F08
:10028C00E4BBE4B3E17FE4BBE5B3EF70E5BBE5B3FE
:10029C00EE60E5BB82E08A95F1F7E3B3EF705E2F79
:1002AC00E4B3EE60E4BBE4B3EF70E4BBE5B3E06F42
:1002BC00E5BBE5B3E17FE5BB82E08A95F1F7E3B3FB
:1002CC00E07FE1605E2B00E010E00C30E0E01E0708
:1002DC007CF4A0E7B2E0A00FB11FAC915A1729F43F
:1002EC0000937E0210937F0203C00F5F1F4FEDCF70
:1002FC000E940F052B96E991EFBFF991E991B99105
:10030C00A99189911895AA93E199FECFE0E0EFBBF2
:10031C00E981EEBBE881EDBBE29AE19A39C0AA9380
:10032C00E199FECFE0E0EFBBE881EEBBE09AEDB3E4
:10033C009CC0AA93EBB3EF70AE2FE881E07FEA2B61
:10034C00EBBB82E08A95F1F7DA9A82E08A95F1F7B5
:10035C00DA9882E08A95F1F788C0AA93A881E9DF40
:10036C00E881E295E883A881E4DF81E18A95F1F7E1
:10037C007CC0AA93E881F0E0E058FD4FE081A981B0
:10038C00AE0FEBDFE981E0938402E881E093850214
:10039C0022960895A2E00E947704ACE0DEDFA1E093
:1003AC000E947704E0E0E0938502E09384020895D4
:1003BC00AA93A881AA3031F0E0918602A091840220
:1003CC00AE1760F0E0E0EA93A0918502AF5FA093D6
:1003DC008502CFDFA881AA3009F447C0E0918402DE
:1003EC00EF5FE0938402D89AA881B7DFD8983DC01C
:1003FC00BA93AA931A93A981BA81ED91A983BA836E
:10040C001E2FE03019F0A12FD3DFF5CF18812396E2
:10041C000895AA93EAB3E06FEABBD29AD09AD19A24
:10042C00DA98D898D998E881E0938602E058E0935E
:10043C008202E881E054E0938302A4E1B0E00E94E0
:10044C00B0040E947D040E947D040E947D04A0E201
:10045C0070DF81E28A95F1F7A8E27FDFA4E07DDF0F
:10046C00A5E87BDFA6E079DF95DF21960895BA93A6
:10047C00AA93A991B991E991F99130962AF4E09552
:10048C00F09531966DE26D93E89480E197E20DD092
:10049C0088EE93E00AD084E6992707D08AE005D04D
:1004AC006E2F10D066276C9308956627E817F9070E
:1004BC0020F06395E81BF90BC9F7662311F416F0CD
:1004CC0008956894605D6D930895BA93AA931A93F6
:1004DC000A93AA81BB8112960E94FB04309759F1B2
:1004EC00AA81BB8114960E94FB048F01309761F0A6
:1004FC000230E0E01E0798F0F80131978F01AA81D5
:10050C00BB811496ED93FC93AA81BB811296ED915D
:10051C00FD913196FE93EE933197AC81A083AA8125
:10052C00BB810E94FB04FF232AF0ED91FD913196D3
:10053C00FE93EE9306C0AA81BB81EFEFFFEFED9324
:10054C00FC931981088125960895BA93AA9326974E
:10055C000E94080510E0AC85BD85E0E0F0E0ED936D
:10056C00FC93EA89FB893196EA8BFB8B3197E491FA
:10057C002E2FE03009F415C1E12FE03039F425328B
:10058C0011F411E002C00E9484040AC1E130A9F404
:10059C00253219F40E94840402C112E040E000E00C
:1005AC002D3211F401E0FCC02B3211F44BE2F8C0F7
:1005BC00203211F440E2F4C002C0E23039F450E0D1
:1005CC0013E0203311F40068EBC003C0E33009F0F2
:1005DC00E7C0203310F02A3308F007C0AAE05A9F76
:1005EC00502DE22FE0535E0FDBC0E22FE33649F4CF
:1005FC000E948B04E889F989A481AA930E94910432
:10060C00CEC0E33741F40E948B040E9497040E94F1
:10061C0013041E2F0AC0E03761F40E948B040E9461
:10062C0097040E941F041E2F086002600F7730E0B1
:10063C0034C0E43611F0E93611F4046002C0E53739
:10064C0031F4E4E5F0E0EE83FF8315E00CC0E8350F
:10065C0011F4086003C0E83709F0A1C0EEE5F0E042
:10066C00EE83FF8314E002FF14C00E948B040E94EF
:10067C00A104AB85AA233AF4EA85FB850E94BE044B
:10068C00EA87FB874DE2403011F01F5F01C00B7F02
:10069C0004C00E948B040E94A10400FD11C0151718
:1006AC0078F407FF08C002FF04C00B7F242F115001
:1006BC0001C020E301C020E20E9484045150EFCF1E
:1006CC00312F01FF17C03030A1F003FF06C0EE81BF
:1006DC00FF812591EE83FF8305C0AE81BF812D91F3
:1006EC00AE83BF830E948404503009F051503150C6
:1006FC00EACF4BC020E3EE81FF810E94FF04E88724
:10070C00F987EE81FF813296EE83FF83E885F985C8
:10071C00AA85BB85AE17BF0750F02F5FA885B9859A
:10072C00EA85FB85EA1BFB0BEA87FB87EFCF2A33B5
:10073C0028F003FF02C0295F01C0295D04FD1AC027
:10074C00213320F4A885B985119709F409C05317F2
:10075C0010F000FF01C013C020E207FF0BC020E324
:10076C00006102FF07C00B7F4A930E949104503036
:10077C0009F051500E948404503009F0515031500E
:10078C00A885B985129708F0B5CF00FF08C0503086
:10079C0031F05150E0E2EA930E949104F8CF10E05E
:1007AC00E0CEAC85BD850E94FB040E940F056496CB
:1007BC000895FF92F82E26970E940A050E94A9041C
:1007CC00309719F4EFEFFFEF23C0DE0116960E946D
:1007DC00BA048D010E94A904EE83FF83E0E0E88750
:1007EC00E987DE011A960E94BA040E94FB04FA9370
:1007FC00EA931A930A93EBE6F2E0FA93EA93DE019A
:10080C001A96A3DE9F01AE81BF81E0E0EC93F90163
:10081C000E9411052A96FF900895BA93AA93A99164
:10082C00B991EE27FF276D91662311F03196FBCF1E
:10083C000895BA93AA93AA27BB27E991F991059039
:10084C00002011F01196FBCFFD010895E0E0EA9332
:10085C00A1E00E94BF01E0E6F2E0FA93EA93ECE734
:10086C00F0E0FA93EA93D501EAE0F0E00E94DA04B2
:10087C000E94C2040E940305D501EAE0F0E00E9448
:10088C00DF040E94C2040E940305D401EAE0F0E0F8
:10089C000E94DA040E94C2040E940305D401EAE01B
:1008AC00F0E00E94DF040E94C2040E940305D30101
:1008BC00EAE0F0E00E94DA040E94C2040E94030500
:1008CC00D301EAE0F0E00E94DF040E94C2040E941F
:1008DC00030588E10E94DF036C96A0E6B2E00C945D
:1008EC00FE010E94B301A3E0B0E00C94B004A0E3BD
:1008FC000E949F0181E28A95F1F708952A93AD85B4
:10090C00BE85EF85F88909950895E889F9893497AA
:10091C00E88BF98B0895AD85BE85EF85F88909952F
:10092C000895A889B98914960E94FB04EE83FF836D
:10093C00AE81BF810895A889B98914960E94FB04E1
:10094C00EA87FB870895DE011C960E94BA040E9478
:10095C00FB040895109639F08AEF90E00197F1F7B7
:10096C00A8951197C9F708950024AF0DB01D0895EF
:10097C00F195E195F04008956F2F660F660B762F79
:10098C0008950024112490E1AA0FBB1F001C111C18
:10099C000E1A1F0A18F40E0E1F1E01C0A1609A95A4
:1009AC0099F7FD01D001089512D0EBDF0EF4E0DFD2
:1009BC000895E894B7FF04C0A095B095119668947B
:1009CC00F7FDD6DFDEDFFD010EF4D2DF0895E894EB
:1009DC00F7FF02C0CDDF6894B7FF06C0A095B095B5
:1009EC00119600F8039400FA0895ED91FC9111977B
:1009FC0008950590F491E02D08957A936A93FA93F3
:100A0C00EA9308955A934A933A932A931A930A9322
:100A1C0008955D814C813B812A811981088108955B
:00000001FF
