:100000000C949F000C943A020C9453020C945E02E0
:100010000C9400000C9400000C9400000C94F60169
:100020000C9400000C9400000C9400000C94000050
:100030000C9400000C9400000C9400000C94000040
:100040000C9400000C9400000C9400000C94000030
:100050000C9400001027E80364000A00010000105F
:10006000000110000100020000000000000000007C
:100070007DBDDDED7BBBDBEB77B7D7E70000000094
:1000800000000000000000000000000000002564E7
:1000900025643A256425643A25642564004C6F6321
:1000A0006B65642E20456E74657220796F757220C1
:1000B00070617373776F72643A00556E6C6F636B27
:1000C0006564007365742070617373776F72642860
:1000D000342D3920646967697473293A00456E7458
:1000E000657220796F75722070617373776F7264B7
:1000F000280050617373776F726420697320736591
:10010000742C20707265737320616E79206B657931
:10011000202E2E2E000080C001002D4E414E0049A1
:100120004E4600000900050066000C0070027000D9
:100130000200800216010100870218010000F894F5
:10014000EE27ECBBF1E0FBBFEBBFE5BF8DE0A2E02B
:10015000BB27ED938A95E9F780E098E0A0E6ED9360
:100160000197E9F7E4E2F1E085919591009761F05C
:10017000A591B59105901590BF01F00105900D92E4
:100180000197E1F7FB01F0CFEFE5EDBFE8E0EEBF4F
:10019000C0E6D2E00C94CC002A97A8E20E94490362
:1001A0000E94F902A4E6EAD1E030C9F4E1E05E2E53
:1001B000A5E6E4D11E2F20E030E00E9466057CF425
:1001C000F901DE01EA0FFB1FFF93EF93A22FAA595B
:1001D000D5D1AF91BF91EC932F5F3F4FEECFE0EFC2
:1001E000E4BBEEE0E5BBBA98C29AE0E2EBBFE4B74D
:1001F000EF7BE4BF0E946C050E947105A0E6B2E0AF
:100200000E942703EDE3EBBDE9E0EABD7894E9B78E
:10021000E461E9BFEBE0EEBDB99AB89A8B988A9891
:10022000939A929AE5B7E5BFE5B7E260E5BFEBB711
:10023000E064EBBFE5B7E5BFE5B7E860E5BFEBB766
:10024000E068EBBFE1E0E51509F044C0619781E1AA
:10025000A0E0B0E0ECE7F0E00E9471060E94B40577
:10026000ADE9B0E00E94360320E030E00E94660570
:100270005CF50E94BB05E9F30E94C1050E946C0574
:10028000DE0117960E942703DE0117960E94C7051C
:10029000DE0114960E947703DE0112960E94270366
:1002A000DE015196A20FB31FEC91A0917E02B09196
:1002B0007F02F0E0EA17FB0721F0E1E0F0E0E883DD
:1002C000F9832F5F3F4FD2CFE881F981309709F44E
:1002D00055246196552031F40E94F902AAEBB0E052
:1002E0000E943603E2E0E51509F07EC02F970E94D8
:1002F000B405A3ECB0E00E9436030E94BB05E9F30D
:100300000E94C105A0917E02B0917F02EAE0F0E078
:100310000E943A061E2F143008F414E0E12FF0E09A
:10032000FA93EA93DE011C960E947703E0E0EA93D9
:10033000A0E00E94E802ADEDB0E00E943603DE01CD
:100340001A960E942703A3EDB0E00E94360320E036
:1003500030E00E94660504F50E94BB05E9F30E94A7
:10036000C105F901DE011F96EA0FFB1FA0917E0275
:10037000A0830E946C05DE010E942703DE010E941B
:10038000C705DE011C960E947703DE011A960E94C3
:1003900027032F5F3F4FDDCFF894E4E6EA93A0E018
:1003A000E1D0E5E6EA93A12FDDD020E030E00E9425
:1003B000660564F4E22FEA59EA93DE015096A20F33
:1003C000B31FAC91CFD02F5F3F4FF1CF7894E1E0D6
:1003D0005E2E0E94B405A2EFB0E048D10E94BB059A
:1003E000E9F30E94C1052F962DCFFFCF0A921A92F2
:1003F000FA926A937A938A939A93AA93BA93EA9316
:10040000FA93EFB7EA930C2C0D2811F5C098C19818
:10041000F30131963F01ECE3F0E0E615F70531F426
:1004200066247724F40131964F01C09AECE3F0E0A2
:10043000E815F90531F488249924F50131965F0116
:10044000C19AE8E1F0E0EA15FB0511F4AA24BB2407
:100450000E946C050E947105E991EFBFF991E99145
:10046000B991A9919991899179916991F99019908E
:10047000099018950A92EA93FA93EFB7EA93E1E0AC
:10048000F0E0EC15FD0519F4CC24DD2406C00C2C9D
:100490000D2819F4E1E0F0E06F01E991EFBFF99167
:1004A000E99109901895EA93EFB766247724882498
:1004B0009924AA24BB24EFBFE99118958A93AA93A3
:1004C000BA93EA93FA93EFB7EA930E946506E1E0E4
:1004D000F0E0E0937C02F0937D02E4B3E06FE4BBD4
:1004E000E4B3E17FE4BBE5B3EF70E5BBE5B3EE60F9
:1004F000E5BB82E08A95F1F7E3B3EF703E2FE4B3FA
:10050000EE60E4BBE4B3EF70E4BBE5B3E06FE5BBE2
:10051000E5B3E17FE5BB82E08A95F1F7E3B3E07FE5
:10052000E1603E2B00E010E00C30E0E01E077CF4C0
:10053000A0E7B2E0A00FB11FAC913A1729F40093E5
:100540007E0210937F0203C00F5F1F4FEDCF0E940A
:100550006C062496E991EFBFF991E991B991A991BF
:1005600089911895AA93E199FECFE0E0EFBBE9816C
:10057000EEBBE881EDBBE29AE19A39C0AA93E1991A
:10058000FECFE0E0EFBBE881EEBBE09AEDB3ADC09B
:10059000AA93EBB3EF70AE2FE881E07FEA2BEBBBC1
:1005A00082E08A95F1F7DA9A82E08A95F1F7DA9893
:1005B00082E08A95F1F799C0AA93A881E9DFE881E2
:1005C000E295E883A881E4DF81E18A95F1F78DC0A7
:1005D000AA93E881F0E0E058FD4FE081A981AE0FD9
:1005E000EBDFE981E0938402E881E09385022296C3
:1005F0000895A2E00E94D205ACE0DEDFA1E00E94F7
:10060000D205E0E0E0938502E09384020895AA9386
:10061000A881AA3031F0E0918602A0918402AE1741
:1006200060F0E0E0EA93A0918502AF5FA0938502BD
:10063000CFDFA881AA3009F458C0E0918402EF5FAF
:10064000E0938402D89AA881B7DFD8984EC0BA93B5
:10065000AA931A93A981BA81ED91A983BA831E2F17
:10066000E03019F0A12FD3DFF5CF10C0BA93AA93D1
:100670001A93E981FA813196E983FA833197E491FB
:100680001E2FE03019F0A12FC2DFF3CF188123967F
:100690000895AA93EAB3E06FEABBD29AD09AD19AAE
:1006A000DA98D898D998E881E0938602E058E093E8
:1006B0008202E881E054E0938302A4E1B0E00E946A
:1006C0000B060E94D8050E94D8050E94D805A0E21A
:1006D0005FDF81E28A95F1F7A8E26EDFA4E06CDFCC
:1006E000A5E86ADFA6E068DF84DF21960895BA9363
:1006F000AA93A991B991E991F99130962AF4E095DC
:10070000F09531966DE26D93E89480E197E20DD01B
:1007100088EE93E00AD084E6992707D08AE005D0D6
:100720006E2F10D066276C9308956627E817F90797
:1007300020F06395E81BF90BC9F7662311F416F056
:1007400008956894605D6D930895BA93AA931A937F
:100750000A93AA81BB8112960E945606309759F1DE
:10076000AA81BB8114960E9456068F01309761F0D2
:100770000230E0E01E0798F0F80131978F01AA815E
:10078000BB811496ED93FC93AA81BB811296ED91E7
:10079000FD913196FE93EE933197AC81A083AA81AF
:1007A000BB810E945606FF232AF0ED91FD91319600
:1007B000FE93EE9306C0AA81BB81EFEFFFEFED93AE
:1007C000FC931981088125960895BA93AA932697D8
:1007D0000E94630610E0AC85BD85E0E0F0E0ED939B
:1007E000FC93EA89FB893196EA8BFB8B3197E49184
:1007F0002E2FE03009F415C1E12FE03039F4253215
:1008000011F411E002C00E94DF050AC1E130A9F431
:10081000253219F40E94DF0502C112E040E000E039
:100820002D3211F401E0FCC02B3211F44BE2F8C080
:10083000203211F440E2F4C002C0E23039F450E05A
:1008400013E0203311F40068EBC003C0E33009F07B
:10085000E7C0203310F02A3308F007C0AAE05A9FFF
:10086000502DE22FE0535E0FDBC0E22FE33649F458
:100870000E94E605E889F989A481AA930E94EC0503
:10088000CEC0E33741F40E94E6050E94F2050E94C3
:100890004D051E2F0AC0E03761F40E94E6050E9454
:1008A000F2050E9459051E2F086002600F7730E0A4
:1008B00034C0E43611F0E93611F4046002C0E537C3
:1008C00031F4E4E5F0E0EE83FF8315E00CC0E83599
:1008D00011F4086003C0E83709F0A1C0EEE5F0E0CC
:1008E000EE83FF8314E002FF14C00E94E6050E941D
:1008F000FC05AB85AA233AF4EA85FB850E9419061C
:10090000EA87FB874DE2403011F01F5F01C00B7F8B
:1009100004C00E94E6050E94FC0500FD11C01517E9
:1009200078F407FF08C002FF04C00B7F242F11508A
:1009300001C020E301C020E20E94DF055150EFCF4B
:10094000312F01FF17C03030A1F003FF06C0EE8148
:10095000FF812591EE83FF8305C0AE81BF812D917C
:10096000AE83BF830E94DF05503009F051503150F3
:10097000EACF4BC020E3EE81FF810E945A06E88750
:10098000F987EE81FF813296EE83FF83E885F98552
:10099000AA85BB85AE17BF0750F02F5FA885B98524
:1009A000EA85FB85EA1BFB0BEA87FB87EFCF2A333F
:1009B00028F003FF02C0295F01C0295D04FD1AC0B1
:1009C000213320F4A885B985119709F409C053177C
:1009D00010F000FF01C013C020E207FF0BC020E3AE
:1009E000006102FF07C00B7F4A930E94EC05503064
:1009F00009F051500E94DF05503009F0515031503C
:100A0000A885B985129708F0B5CF00FF08C050300F
:100A100031F05150E0E2EA930E94EC05F8CF10E08B
:100A2000E0CEAC85BD850E9456060E946A0664969B
:100A30000895FF92F82E26970E9465060E940406EC
:100A4000309719F4EFEFFFEF23C0DE0116960E94F6
:100A500015068D010E940406EE83FF83E0E0E8871F
:100A6000E987DE011A960E9415060E945606FA933F
:100A7000EA931A930A93E5EAF3E0FA93EA93DE0124
:100A80001A96A3DE9F01AE81BF81E0E0EC93F901ED
:100A90000E946C062A96FF900895BA93AA93A99192
:100AA000B991EE27FF276D91662311F03196FBCFA8
:100AB0000895BA93AA93AA27BB27E991F9910590C3
:100AC000002011F01196FBCFFD010895E12FD9010F
:100AD000F0E0AE17BF070895E0E0EA93A1E00C94C0
:100AE000E802E0E6F2E0FA93EA93EEE8F0E0FA9347
:100AF000EA93D501EAE0F0E00E9435060E941D0667
:100B00000E945E06D501EAE0F0E00E943A060E94EB
:100B10001D060E945E06D401EAE0F0E00E94350660
:100B20000E941D060E945E06D401EAE0F0E00E94E9
:100B30003A060E941D060E945E06D301EAE0F0E03C
:100B40000E9435060E941D060E945E06D301EAE05F
:100B5000F0E00E943A060E941D060E945E0688E1AF
:100B60000E9419056C9608950E94F902E0E0EA934C
:100B7000A0E00C94E802E0917C02F0917D023097B5
:100B80000895E0E0E0937C02E0937D020895A20FD7
:100B9000B31FEAE2EC93E0917E02F0917F02FA93B8
:100BA000EA9308950E94DC02A3E0B0E00C940B06E7
:100BB000A0E30E94C80281E28A95F1F708952A9382
:100BC000AD85BE85EF85F88909950895E889F9898D
:100BD0003497E88BF98B0895AD85BE85EF85F8894C
:100BE00009950895A889B98914960E945606EE833E
:100BF000FF83AE81BF810895A889B98914960E94A8
:100C00005606EA87FB870895DE011C960E941506AA
:100C10000E9456060895109639F08AEF90E00197E9
:100C2000F1F7A8951197C9F708950024AF0DB01DED
:100C30000895F195E195F04008956F2F660F660BCA
:100C4000762F08950024112490E1AA0FBB1F001CE9
:100C5000111C0E1A1F0A18F40E0E1F1E01C0A160EF
:100C60009A9599F7FD01D001089512D0EBDF0EF4AB
:100C7000E0DF0895E894B7FF04C0A095B095119601
:100C80006894F7FDD6DFDEDFFD010EF4D2DF0895B4
:100C9000E894F7FF02C0CDDF6894B7FF06C0A095C7
:100CA000B095119600F8039400FA0895ED91FC9127
:100CB000119708950590F491E02D08957A936A9321
:100CC000FA93EA9308955A934A933A932A931A937C
:100CD0000A9308955D814C813B812A8119810881A5
:100CE0000895AC0FBD1F05900D928A95E1F7089508
:00000001FF
